{
  "_format": "hh-sol-artifact-1",
  "contractName": "NFTMarket",
  "sourceName": "contracts/Market.sol",
  "abi": [
    {
      "inputs": [],
      "stateMutability": "nonpayable",
      "type": "constructor"
    },
    {
      "anonymous": false,
      "inputs": [
        {
          "indexed": true,
          "internalType": "uint256",
          "name": "itemId",
          "type": "uint256"
        },
        {
          "indexed": true,
          "internalType": "address",
          "name": "nftContract",
          "type": "address"
        },
        {
          "indexed": true,
          "internalType": "uint256",
          "name": "tokenId",
          "type": "uint256"
        },
        {
          "indexed": false,
          "internalType": "address",
          "name": "seller",
          "type": "address"
        },
        {
          "indexed": false,
          "internalType": "address",
          "name": "owner",
          "type": "address"
        },
        {
          "indexed": false,
          "internalType": "uint256",
          "name": "price",
          "type": "uint256"
        },
        {
          "indexed": false,
          "internalType": "bool",
          "name": "sold",
          "type": "bool"
        }
      ],
      "name": "MarketItemCreated",
      "type": "event"
    },
    {
      "inputs": [
        {
          "internalType": "address",
          "name": "nftContract",
          "type": "address"
        },
        {
          "internalType": "uint256",
          "name": "tokenId",
          "type": "uint256"
        },
        {
          "internalType": "uint256",
          "name": "price",
          "type": "uint256"
        }
      ],
      "name": "createMarketItem",
      "outputs": [],
      "stateMutability": "payable",
      "type": "function"
    },
    {
      "inputs": [
        {
          "internalType": "address",
          "name": "nftContract",
          "type": "address"
        },
        {
          "internalType": "uint256",
          "name": "itemId",
          "type": "uint256"
        }
      ],
      "name": "createMarketSale",
      "outputs": [],
      "stateMutability": "payable",
      "type": "function"
    },
    {
      "inputs": [],
      "name": "fetchItemsCreated",
      "outputs": [
        {
          "components": [
            {
              "internalType": "uint256",
              "name": "itemId",
              "type": "uint256"
            },
            {
              "internalType": "address",
              "name": "nftContract",
              "type": "address"
            },
            {
              "internalType": "uint256",
              "name": "tokenId",
              "type": "uint256"
            },
            {
              "internalType": "address payable",
              "name": "seller",
              "type": "address"
            },
            {
              "internalType": "address payable",
              "name": "owner",
              "type": "address"
            },
            {
              "internalType": "uint256",
              "name": "price",
              "type": "uint256"
            },
            {
              "internalType": "bool",
              "name": "sold",
              "type": "bool"
            }
          ],
          "internalType": "struct NFTMarket.MarketItem[]",
          "name": "",
          "type": "tuple[]"
        }
      ],
      "stateMutability": "view",
      "type": "function"
    },
    {
      "inputs": [],
      "name": "fetchMarketItems",
      "outputs": [
        {
          "components": [
            {
              "internalType": "uint256",
              "name": "itemId",
              "type": "uint256"
            },
            {
              "internalType": "address",
              "name": "nftContract",
              "type": "address"
            },
            {
              "internalType": "uint256",
              "name": "tokenId",
              "type": "uint256"
            },
            {
              "internalType": "address payable",
              "name": "seller",
              "type": "address"
            },
            {
              "internalType": "address payable",
              "name": "owner",
              "type": "address"
            },
            {
              "internalType": "uint256",
              "name": "price",
              "type": "uint256"
            },
            {
              "internalType": "bool",
              "name": "sold",
              "type": "bool"
            }
          ],
          "internalType": "struct NFTMarket.MarketItem[]",
          "name": "",
          "type": "tuple[]"
        }
      ],
      "stateMutability": "view",
      "type": "function"
    },
    {
      "inputs": [],
      "name": "fetchMyNFTs",
      "outputs": [
        {
          "components": [
            {
              "internalType": "uint256",
              "name": "itemId",
              "type": "uint256"
            },
            {
              "internalType": "address",
              "name": "nftContract",
              "type": "address"
            },
            {
              "internalType": "uint256",
              "name": "tokenId",
              "type": "uint256"
            },
            {
              "internalType": "address payable",
              "name": "seller",
              "type": "address"
            },
            {
              "internalType": "address payable",
              "name": "owner",
              "type": "address"
            },
            {
              "internalType": "uint256",
              "name": "price",
              "type": "uint256"
            },
            {
              "internalType": "bool",
              "name": "sold",
              "type": "bool"
            }
          ],
          "internalType": "struct NFTMarket.MarketItem[]",
          "name": "",
          "type": "tuple[]"
        }
      ],
      "stateMutability": "view",
      "type": "function"
    },
    {
      "inputs": [],
      "name": "getListingPrice",
      "outputs": [
        {
          "internalType": "uint256",
          "name": "",
          "type": "uint256"
        }
      ],
      "stateMutability": "view",
      "type": "function"
    }
  ],
  "bytecode": "0x60806040526658d15e1762800060045534801561001b57600080fd5b506001600055600380546001600160a01b03191633179055610e42806100426000396000f3fe6080604052600436106100555760003560e01c80630f08efe01461005a57806312e8558514610085578063202e3740146100a357806358eb2df5146100b8578063c23b139e146100cd578063f064c32e146100e0575b600080fd5b34801561006657600080fd5b5061006f6100f5565b60405161007c9190610c8e565b60405180910390f35b34801561009157600080fd5b5060045460405190815260200161007c565b3480156100af57600080fd5b5061006f6102af565b6100cb6100c6366004610c5c565b6104a7565b005b6100cb6100db366004610c33565b61073e565b3480156100ec57600080fd5b5061006f610976565b6060600061010260015490565b9050600061010f60025490565b60015461011c9190610d9c565b90506000808267ffffffffffffffff81111561014857634e487b7160e01b600052604160045260246000fd5b60405190808252806020026020018201604052801561018157816020015b61016e610bdb565b8152602001906001900390816101665790505b50905060005b848110156102a657600060058161019f846001610d84565b81526020810191909152604001600020600401546001600160a01b031614156102945760006005816101d2846001610d84565b81526020808201929092526040908101600090812054808252600580855291839020835160e0810185528154815260018201546001600160a01b0390811696820196909652600282015494810194909452600381015485166060850152600481015490941660808401529083015460a0830152600683015460ff16151560c0830152855190935085908790811061027957634e487b7160e01b600052603260045260246000fd5b602090810291909101015261028f600186610d84565b945050505b8061029e81610db3565b915050610187565b50949350505050565b606060006102bc60015490565b905060008060005b8381101561031f5733600560006102dc846001610d84565b81526020810191909152604001600020600401546001600160a01b0316141561030d5761030a600184610d84565b92505b8061031781610db3565b9150506102c4565b5060008267ffffffffffffffff81111561034957634e487b7160e01b600052604160045260246000fd5b60405190808252806020026020018201604052801561038257816020015b61036f610bdb565b8152602001906001900390816103675790505b50905060005b848110156102a65733600560006103a0846001610d84565b81526020810191909152604001600020600401546001600160a01b031614156104955760006005816103d3846001610d84565b81526020808201929092526040908101600090812054808252600580855291839020835160e0810185528154815260018201546001600160a01b0390811696820196909652600282015494810194909452600381015485166060850152600481015490941660808401529083015460a0830152600683015460ff16151560c0830152855190935085908790811061047a57634e487b7160e01b600052603260045260246000fd5b6020908102919091010152610490600186610d84565b945050505b8061049f81610db3565b915050610388565b600260005414156104ff5760405162461bcd60e51b815260206004820152601f60248201527f5265656e7472616e637947756172643a207265656e7472616e742063616c6c0060448201526064015b60405180910390fd5b6002600055806105485760405162461bcd60e51b8152602060048201526014602482015273456e746572206174206c6561737420312077656960601b60448201526064016104f6565b60045434146105a55760405162461bcd60e51b8152602060048201526024808201527f5072696365206d75737420626520657175616c20746f206c697374696e6720706044820152637269636560e01b60648201526084016104f6565b6105b3600180546001019055565b60006105be60015490565b6040805160e0810182528281526001600160a01b0387811660208084018281528486018a8152336060870181815260006080890181815260a08a018e815260c08b018381528d8452600598899052928c90209a518b55955160018b018054918b166001600160a01b0319928316179055945160028b0155915160038a018054918a1691861691909117905590516004808a01805492909916919094161790965591519286019290925592516006909401805494151560ff199095169490941790935592516323b872dd60e01b81529182015230602482015260448101869052919250906323b872dd90606401600060405180830381600087803b1580156106c457600080fd5b505af11580156106d8573d6000803e3d6000fd5b505060408051338152600060208201819052818301879052606082015290518693506001600160a01b038816925084917f045dfa01dcba2b36aba1d3dc4a874f4b0c5d2fbeb8d2c4b34a7d88c8d8f929d1919081900360800190a4505060016000555050565b600260005414156107915760405162461bcd60e51b815260206004820152601f60248201527f5265656e7472616e637947756172643a207265656e7472616e742063616c6c0060448201526064016104f6565b60026000818155828152600560208181526040928390209182015491909301548251606081019093526028808452919390926107d7929091610de5908301393484610b6e565b8134146108415760405162461bcd60e51b815260206004820152603260248201527f506c65617365207375626d69742061736b656420707269636520746f20636f6d604482015271706c6574652074686520707572636861736560701b60648201526084016104f6565b6000838152600560205260408082206003015490516001600160a01b03909116913480156108fc02929091818181858888f19350505050158015610889573d6000803e3d6000fd5b506040516323b872dd60e01b8152306004820152336024820152604481018290526001600160a01b038516906323b872dd90606401600060405180830381600087803b1580156108d857600080fd5b505af11580156108ec573d6000803e3d6000fd5b50505060008481526005602052604090206004810180546001600160a01b03191633179055600601805460ff191660011790555061092e600280546001019055565b6003546004546040516001600160a01b039092169181156108fc0291906000818181858888f1935050505015801561096a573d6000803e3d6000fd5b50506001600055505050565b6060600061098360015490565b905060008060005b838110156109e65733600560006109a3846001610d84565b81526020810191909152604001600020600301546001600160a01b031614156109d4576109d1600184610d84565b92505b806109de81610db3565b91505061098b565b5060008267ffffffffffffffff811115610a1057634e487b7160e01b600052604160045260246000fd5b604051908082528060200260200182016040528015610a4957816020015b610a36610bdb565b815260200190600190039081610a2e5790505b50905060005b848110156102a6573360056000610a67846001610d84565b81526020810191909152604001600020600301546001600160a01b03161415610b5c576000600581610a9a846001610d84565b81526020808201929092526040908101600090812054808252600580855291839020835160e0810185528154815260018201546001600160a01b0390811696820196909652600282015494810194909452600381015485166060850152600481015490941660808401529083015460a0830152600683015460ff16151560c08301528551909350859087908110610b4157634e487b7160e01b600052603260045260246000fd5b6020908102919091010152610b57600186610d84565b945050505b80610b6681610db3565b915050610a4f565b610bb5838383604051602401610b8693929190610d22565b60408051601f198184030181529190526020810180516001600160e01b031663969cdd0360e01b179052610bba565b505050565b80516a636f6e736f6c652e6c6f67602083016000808483855afa5050505050565b6040805160e081018252600080825260208201819052918101829052606081018290526080810182905260a0810182905260c081019190915290565b80356001600160a01b0381168114610c2e57600080fd5b919050565b60008060408385031215610c45578182fd5b610c4e83610c17565b946020939093013593505050565b600080600060608486031215610c70578081fd5b610c7984610c17565b95602085013595506040909401359392505050565b602080825282518282018190526000919060409081850190868401855b82811015610d1557815180518552868101516001600160a01b039081168887015286820151878701526060808301518216908701526080808301519091169086015260a0808201519086015260c09081015115159085015260e09093019290850190600101610cab565b5091979650505050505050565b6060815260008451806060840152815b81811015610d4f5760208188018101516080868401015201610d32565b81811115610d605782608083860101525b5060208301949094525060408101919091526080601f909201601f19160101919050565b60008219821115610d9757610d97610dce565b500190565b600082821015610dae57610dae610dce565b500390565b6000600019821415610dc757610dc7610dce565b5060010190565b634e487b7160e01b600052601160045260246000fdfe707269636520656e74657265642027257327202c20616e64206974656d2070726963652027257327a2646970667358221220838a8bcb92ab4a95f81ff9085e82a14dca25ff978217927b03d6d93c4e13284564736f6c63430008040033",
  "linkReferences": {},
  "deployedLinkReferences": {}
}